{
  "contractName": "House",
  "abi": [
    {
      "inputs": [],
      "payable": false,
      "stateMutability": "nonpayable",
      "type": "constructor"
    },
    {
      "constant": false,
      "inputs": [
        {
          "name": "house_name",
          "type": "bytes32"
        },
        {
          "name": "house_no",
          "type": "bytes32"
        },
        {
          "name": "street",
          "type": "bytes32"
        },
        {
          "name": "city_name",
          "type": "bytes32"
        }
      ],
      "name": "createHouse",
      "outputs": [],
      "payable": false,
      "stateMutability": "nonpayable",
      "type": "function"
    },
    {
      "constant": false,
      "inputs": [
        {
          "name": "tx_hash",
          "type": "string"
        }
      ],
      "name": "setTxHash",
      "outputs": [],
      "payable": false,
      "stateMutability": "nonpayable",
      "type": "function"
    },
    {
      "constant": true,
      "inputs": [],
      "name": "getAllHouseHashes",
      "outputs": [
        {
          "name": "",
          "type": "bytes32[]"
        }
      ],
      "payable": false,
      "stateMutability": "view",
      "type": "function"
    },
    {
      "constant": true,
      "inputs": [
        {
          "name": "house_hash",
          "type": "bytes32"
        }
      ],
      "name": "getHouseByHash",
      "outputs": [
        {
          "name": "house_name",
          "type": "bytes32"
        },
        {
          "name": "house_no",
          "type": "bytes32"
        },
        {
          "name": "street",
          "type": "bytes32"
        },
        {
          "name": "city_name",
          "type": "bytes32"
        },
        {
          "name": "inputHash",
          "type": "bytes32"
        }
      ],
      "payable": false,
      "stateMutability": "view",
      "type": "function"
    },
    {
      "constant": true,
      "inputs": [
        {
          "name": "house_hash",
          "type": "bytes32"
        }
      ],
      "name": "getTxHash",
      "outputs": [
        {
          "name": "",
          "type": "string"
        }
      ],
      "payable": false,
      "stateMutability": "view",
      "type": "function"
    }
  ],
  "bytecode": "0x608060405234801561001057600080fd5b50610894806100206000396000f3fe608060405234801561001057600080fd5b50600436106100575760003560e01c80631546aedc1461005c5780637f26e432146100a85780639b88050d14610106578063b45b19fc146101c1578063f03de82614610268575b600080fd5b6100a66004803603608081101561007257600080fd5b81019080803590602001909291908035906020019092919080359060200190929190803590602001909291905050506102c7565b005b6100d4600480360360208110156100be57600080fd5b8101908080359060200190929190505050610378565b604051808681526020018581526020018481526020018381526020018281526020019550505050505060405180910390f35b6101bf6004803603602081101561011c57600080fd5b810190808035906020019064010000000081111561013957600080fd5b82018360208201111561014b57600080fd5b8035906020019184600183028401116401000000008311171561016d57600080fd5b91908080601f016020809104026020016040519081016040528093929190818152602001838380828437600081840152601f19601f820116905080830192505050505050509192919290505050610406565b005b6101ed600480360360208110156101d757600080fd5b8101908080359060200190929190505050610456565b6040518080602001828103825283818151815260200191508051906020019080838360005b8381101561022d578082015181840152602081019050610212565b50505050905090810190601f16801561025a5780820380516001836020036101000a031916815260200191505b509250505060405180910390f35b61027061050b565b6040518080602001828103825283818151815260200191508051906020019060200280838360005b838110156102b3578082015181840152602081019050610298565b505050509050019250505060405180910390f35b60006102d585858585610563565b90506040518060a0016040528086815260200185815260200184815260200183815260200182815250600080838152602001908152602001600020600082015181600001556020820151816001015560408201518160020155606082015181600301556080820151816004015590505060028190806001815401808255809150509060018203906000526020600020016000909192909190915055505050505050565b6000806000806000610388610785565b6000808881526020019081526020016000206040518060a001604052908160008201548152602001600182015481526020016002820154815260200160038201548152602001600482015481525050905080600001518160200151826040015183606001518460800151955095509550955095505091939590929450565b600060026001600280549050038154811061041d57fe5b90600052602060002001549050816001600083815260200190815260200160002090805190602001906104519291906107c3565b505050565b6060600160008381526020019081526020016000208054600181600116156101000203166002900480601f0160208091040260200160405190810160405280929190818152602001828054600181600116156101000203166002900480156104ff5780601f106104d4576101008083540402835291602001916104ff565b820191906000526020600020905b8154815290600101906020018083116104e257829003601f168201915b50505050509050919050565b6060600280548060200260200160405190810160405280929190818152602001828054801561055957602002820191906000526020600020905b815481526020019060010190808311610545575b5050505050905090565b6000606060208060208001010160ff166040519080825280601f01601f1916602001820160405280156105a55781602001600182028038833980820191505090505b5090506060819050600080905060008090505b602060ff16811015610622578881602081106105d057fe5b1a60f81b8383806001019450815181106105e657fe5b60200101907effffffffffffffffffffffffffffffffffffffffffffffffffffffffffffff1916908160001a90535080806001019150506105b8565b600090505b602060ff168110156106915787816020811061063f57fe5b1a60f81b83838060010194508151811061065557fe5b60200101907effffffffffffffffffffffffffffffffffffffffffffffffffffffffffffff1916908160001a9053508080600101915050610627565b600090505b602060ff16811015610700578681602081106106ae57fe5b1a60f81b8383806001019450815181106106c457fe5b60200101907effffffffffffffffffffffffffffffffffffffffffffffffffffffffffffff1916908160001a9053508080600101915050610696565b600090505b602060ff1681101561076f5785816020811061071d57fe5b1a60f81b83838060010194508151811061073357fe5b60200101907effffffffffffffffffffffffffffffffffffffffffffffffffffffffffffff1916908160001a9053508080600101915050610705565b8280519060200120945050505050949350505050565b6040518060a0016040528060008019168152602001600080191681526020016000801916815260200160008019168152602001600080191681525090565b828054600181600116156101000203166002900490600052602060002090601f016020900481019282601f1061080457805160ff1916838001178555610832565b82800160010185558215610832579182015b82811115610831578251825591602001919060010190610816565b5b50905061083f9190610843565b5090565b61086591905b80821115610861576000816000905550600101610849565b5090565b9056fea165627a7a72305820f5b8f2cb52f3993a589043c252c9779a2370cd2c41d0931cc2d716db57b5c4a20029",
  "source": "pragma solidity >= 0.5.0 < 0.6.0;\r\n\r\ncontract House {\r\n\r\n    struct house {\r\n        bytes32 houseName;\r\n        bytes32 houseNo;\r\n        bytes32 street;\r\n        bytes32 city;\r\n        bytes32 inputHash;\r\n    }\r\n\r\n    mapping(bytes32 => house) houseList;\r\n    mapping(bytes32 => string) tx_hashes;\r\n    bytes32[] houseHashes;\r\n\r\n    constructor() public {\r\n    }\r\n\r\n    function createHouse (\r\n        bytes32 house_name,\r\n        bytes32 house_no,\r\n        bytes32 street,\r\n        bytes32 city_name)\r\n\r\n        public\r\n        {\r\n            bytes32 houseHash = getHash(house_name, house_no, street, city_name);\r\n            houseList[houseHash] = house(house_name, house_no, street, city_name, houseHash);\r\n            houseHashes.push(houseHash);\r\n\r\n    }\r\n\r\n    function setTxHash(string memory tx_hash) public {\r\n        bytes32 houseHash = houseHashes[houseHashes.length -1];\r\n        tx_hashes[houseHash] = tx_hash;\r\n    }\r\n\r\n    function getAllHouseHashes() public view returns( bytes32[] memory) {\r\n        return houseHashes;\r\n    }\r\n\r\n    function getHouseByHash( bytes32 house_hash )\r\n    public\r\n    view\r\n    returns(\r\n        bytes32 house_name,\r\n        bytes32 house_no,\r\n        bytes32 street,\r\n        bytes32 city_name,\r\n        bytes32 inputHash\r\n\r\n    ) {\r\n        house memory h = houseList[house_hash];\r\n        return (h.houseName, h.houseNo, h.street, h.city, h.inputHash);\r\n    }\r\n\r\n    function getTxHash(bytes32 house_hash) public view returns(string memory) {\r\n        return tx_hashes[house_hash];\r\n    }\r\n\r\n    function getHash(\r\n        bytes32 house_name,\r\n        bytes32 house_no,\r\n        bytes32 street,\r\n        bytes32 city_name)\r\n\r\n        private\r\n        pure\r\n        returns(bytes32) {\r\n            string memory dataStr = new string(\r\n                house_name.length +\r\n                house_no.length +\r\n                street.length +\r\n                city_name.length );\r\n\r\n            bytes memory byteStr = bytes(dataStr);\r\n\r\n\r\n            uint j = 0;\r\n        uint i;\r\n        for(i = 0; i < house_name.length; i++){\r\n            byteStr[j++] = house_name[i];\r\n        }\r\n        for(i = 0; i < house_no.length; i++){\r\n            byteStr[j++] = house_no[i];\r\n        }\r\n        for(i = 0; i < street.length; i++){\r\n            byteStr[j++] = street[i];\r\n        }\r\n        for(i = 0; i < city_name.length; i++){\r\n            byteStr[j++] = city_name[i];\r\n        }\r\n\r\n        return keccak256(byteStr);\r\n    }\r\n}",
  "sourcePath": "/media/naushad/New Volume/NaushadHossain/HomeTracker/Ethereum-based-Home-tracker/assetTrackerBackEnd/contracts/House.sol",
  "compiler": {
    "name": "solc",
    "version": "0.5.8+commit.23d335f2.Emscripten.clang"
  },
  "schemaVersion": "3.0.15",
  "updatedAt": "2019-12-03T04:32:28.477Z",
  "devdoc": {
    "methods": {}
  },
  "userdoc": {
    "methods": {}
  }
}