{
  "contractName": "House",
  "abi": [
    {
      "inputs": [],
      "payable": false,
      "stateMutability": "nonpayable",
      "type": "constructor"
    },
    {
      "constant": false,
      "inputs": [
        {
          "internalType": "bytes32",
          "name": "house_name",
          "type": "bytes32"
        },
        {
          "internalType": "bytes32",
          "name": "woners_name",
          "type": "bytes32"
        },
        {
          "internalType": "bytes32",
          "name": "house_no",
          "type": "bytes32"
        },
        {
          "internalType": "bytes32",
          "name": "street",
          "type": "bytes32"
        },
        {
          "internalType": "bytes32",
          "name": "city_name",
          "type": "bytes32"
        }
      ],
      "name": "createHouse",
      "outputs": [],
      "payable": false,
      "stateMutability": "nonpayable",
      "type": "function"
    },
    {
      "constant": false,
      "inputs": [
        {
          "internalType": "string",
          "name": "tx_hash",
          "type": "string"
        }
      ],
      "name": "setTxHash",
      "outputs": [],
      "payable": false,
      "stateMutability": "nonpayable",
      "type": "function"
    },
    {
      "constant": true,
      "inputs": [],
      "name": "getAllHouseIds",
      "outputs": [
        {
          "internalType": "uint256[]",
          "name": "",
          "type": "uint256[]"
        }
      ],
      "payable": false,
      "stateMutability": "view",
      "type": "function"
    },
    {
      "constant": true,
      "inputs": [
        {
          "internalType": "uint256",
          "name": "house_id",
          "type": "uint256"
        }
      ],
      "name": "getHouseById",
      "outputs": [
        {
          "internalType": "bytes32",
          "name": "house_name",
          "type": "bytes32"
        },
        {
          "internalType": "bytes32",
          "name": "woners_name",
          "type": "bytes32"
        },
        {
          "internalType": "bytes32",
          "name": "house_no",
          "type": "bytes32"
        },
        {
          "internalType": "bytes32",
          "name": "street",
          "type": "bytes32"
        },
        {
          "internalType": "bytes32",
          "name": "city_name",
          "type": "bytes32"
        }
      ],
      "payable": false,
      "stateMutability": "view",
      "type": "function"
    },
    {
      "constant": true,
      "inputs": [
        {
          "internalType": "uint256",
          "name": "id",
          "type": "uint256"
        }
      ],
      "name": "getTxHash",
      "outputs": [
        {
          "internalType": "string",
          "name": "",
          "type": "string"
        }
      ],
      "payable": false,
      "stateMutability": "view",
      "type": "function"
    },
    {
      "constant": false,
      "inputs": [
        {
          "internalType": "uint256",
          "name": "house_id",
          "type": "uint256"
        },
        {
          "internalType": "bytes32",
          "name": "woners_name",
          "type": "bytes32"
        }
      ],
      "name": "changeWoner",
      "outputs": [],
      "payable": false,
      "stateMutability": "nonpayable",
      "type": "function"
    }
  ],
  "bytecode": "0x608060405234801561001057600080fd5b50600080819055506106cf806100276000396000f3fe608060405234801561001057600080fd5b50600436106100625760003560e01c8063051cb02c1461006757806315c122e0146100c65780632c293918146101245780633393dd2c1461015c5780636b0a4cf6146101b25780639b88050d14610259575b600080fd5b61006f610314565b6040518080602001828103825283818151815260200191508051906020019060200280838360005b838110156100b2578082015181840152602081019050610097565b505050509050019250505060405180910390f35b6100f2600480360360208110156100dc57600080fd5b810190808035906020019092919050505061036c565b604051808681526020018581526020018481526020018381526020018281526020019550505050505060405180910390f35b61015a6004803603604081101561013a57600080fd5b8101908080359060200190929190803590602001909291905050506103fb565b005b6101b0600480360360a081101561017257600080fd5b810190808035906020019092919080359060200190929190803590602001909291908035906020019092919080359060200190929190505050610420565b005b6101de600480360360208110156101c857600080fd5b81019080803590602001909291905050506104d6565b6040518080602001828103825283818151815260200191508051906020019080838360005b8381101561021e578082015181840152602081019050610203565b50505050905090810190601f16801561024b5780820380516001836020036101000a031916815260200191505b509250505060405180910390f35b6103126004803603602081101561026f57600080fd5b810190808035906020019064010000000081111561028c57600080fd5b82018360208201111561029e57600080fd5b803590602001918460018302840111640100000000831117156102c057600080fd5b91908080601f016020809104026020016040519081016040528093929190818152602001838380828437600081840152601f19601f82011690508083019250505050505050919291929050505061058b565b005b6060600380548060200260200160405190810160405280929190818152602001828054801561036257602002820191906000526020600020905b81548152602001906001019080831161034e575b5050505050905090565b600080600080600061037c6105b7565b600160008881526020019081526020016000206040518060a001604052908160008201548152602001600182015481526020016002820154815260200160038201548152602001600482015481525050905080600001518160200151826040015183606001518460800151955095509550955095505091939590929450565b6000600160008481526020019081526020016000209050818160010181905550505050565b60008081548092919060010191905055506040518060a001604052808681526020018581526020018481526020018381526020018281525060016000805481526020019081526020016000206000820151816000015560208201518160010155604082015181600201556060820151816003015560808201518160040155905050600360005490806001815401808255809150509060018203906000526020600020016000909192909190915055505050505050565b6060600260008381526020019081526020016000208054600181600116156101000203166002900480601f01602080910402602001604051908101604052809291908181526020018280546001816001161561010002031660029004801561057f5780601f106105545761010080835404028352916020019161057f565b820191906000526020600020905b81548152906001019060200180831161056257829003601f168201915b50505050509050919050565b80600260008054815260200190815260200160002090805190602001906105b39291906105f5565b5050565b6040518060a0016040528060008019168152602001600080191681526020016000801916815260200160008019168152602001600080191681525090565b828054600181600116156101000203166002900490600052602060002090601f016020900481019282601f1061063657805160ff1916838001178555610664565b82800160010185558215610664579182015b82811115610663578251825591602001919060010190610648565b5b5090506106719190610675565b5090565b61069791905b8082111561069357600081600090555060010161067b565b5090565b9056fea265627a7a72315820379f6a7473b0ffefbf27608aebec1e1252509e32e8060a41f8b4a5e1a89c5af864736f6c634300050c0032",
  "source": "pragma solidity >= 0.5.0 < 0.6.0;\r\n\r\ncontract House {\r\n    \r\n    uint currentHouseId;\r\n    \r\n    struct house {\r\n        bytes32 houseName;\r\n        bytes32 wonersName;\r\n        bytes32 houseNo;\r\n        bytes32 street;\r\n        bytes32 city;\r\n    }\r\n    \r\n    mapping(uint => house) houseList;\r\n    mapping(uint => string) tx_hashes;\r\n    uint[] houseIds;\r\n    \r\n    constructor() public {\r\n        currentHouseId = 0;\r\n    }\r\n    \r\n    function createHouse (\r\n        bytes32 house_name,\r\n        bytes32 woners_name,\r\n        bytes32 house_no,\r\n        bytes32 street,\r\n        bytes32 city_name)\r\n        \r\n        public\r\n        {\r\n            \r\n            currentHouseId++;\r\n            houseList[currentHouseId] = house(house_name, woners_name, house_no, street, city_name);\r\n            houseIds.push(currentHouseId);\r\n        \r\n    }\r\n\r\n    function setTxHash(string memory tx_hash) public {\r\n        tx_hashes[currentHouseId] = tx_hash;\r\n    }\r\n    \r\n    function getAllHouseIds() public view returns( uint[] memory) {\r\n        return houseIds;\r\n    }\r\n    \r\n    function getHouseById( uint house_id )\r\n    public\r\n    view\r\n    returns(\r\n        bytes32 house_name,\r\n        bytes32 woners_name,\r\n        bytes32 house_no,\r\n        bytes32 street,\r\n        bytes32 city_name\r\n        \r\n    ) {\r\n        house memory h = houseList[house_id];\r\n        return (h.houseName, h.wonersName, h.houseNo, h.street, h.city);\r\n    }\r\n\r\n    function getTxHash(uint id) public view returns(string memory) {\r\n        return tx_hashes[id];\r\n    }\r\n    \r\n    function changeWoner(uint house_id, bytes32 woners_name) public {\r\n        house storage h = houseList[house_id];\r\n        h.wonersName = woners_name;\r\n    }\r\n}",
  "sourcePath": "C:/Users/faizul/Desktop/assetTracker/contracts/House.sol",
  "compiler": {
    "name": "solc",
    "version": "0.5.12+commit.7709ece9.Emscripten.clang"
  },
  "schemaVersion": "3.0.19",
  "updatedAt": "2019-11-25T06:23:33.375Z",
  "networkType": "ethereum",
  "devdoc": {
    "methods": {}
  },
  "userdoc": {
    "methods": {}
  }
}