{
  "contractName": "OwnershipManagement",
  "abi": [
    {
      "constant": false,
      "inputs": [
        {
          "name": "house_tx_hash",
          "type": "bytes32"
        },
        {
          "name": "name",
          "type": "bytes32"
        }
      ],
      "name": "addOwnership",
      "outputs": [],
      "payable": false,
      "stateMutability": "nonpayable",
      "type": "function"
    },
    {
      "constant": false,
      "inputs": [
        {
          "name": "house_tx_hash",
          "type": "bytes32"
        },
        {
          "name": "new_owners_name",
          "type": "bytes32"
        },
        {
          "name": "new_owners_addrss",
          "type": "address"
        }
      ],
      "name": "changeOwnership",
      "outputs": [],
      "payable": false,
      "stateMutability": "nonpayable",
      "type": "function"
    },
    {
      "constant": false,
      "inputs": [
        {
          "name": "house_tx_hash",
          "type": "bytes32"
        },
        {
          "name": "ownership_tx_hash",
          "type": "bytes32"
        }
      ],
      "name": "setOwnershipTxHash",
      "outputs": [],
      "payable": false,
      "stateMutability": "nonpayable",
      "type": "function"
    },
    {
      "constant": true,
      "inputs": [
        {
          "name": "house_tx_hash",
          "type": "bytes32"
        }
      ],
      "name": "getOwnersInfo",
      "outputs": [
        {
          "name": "",
          "type": "bytes32"
        },
        {
          "name": "",
          "type": "address"
        }
      ],
      "payable": false,
      "stateMutability": "view",
      "type": "function"
    },
    {
      "constant": true,
      "inputs": [
        {
          "name": "house_tx_hash",
          "type": "bytes32"
        }
      ],
      "name": "getOwnershipTransactionInfo",
      "outputs": [
        {
          "name": "",
          "type": "bytes32"
        }
      ],
      "payable": false,
      "stateMutability": "view",
      "type": "function"
    }
  ],
  "bytecode": "0x608060405234801561001057600080fd5b50610499806100206000396000f3fe608060405234801561001057600080fd5b50600436106100575760003560e01c80630e4ae5081461005c57806355af3809146100b4578063a38c61ca146100ec578063b98e521314610124578063bdc6080514610166575b600080fd5b6100b26004803603606081101561007257600080fd5b810190808035906020019092919080359060200190929190803573ffffffffffffffffffffffffffffffffffffffff1690602001909291905050506101db565b005b6100ea600480360360408110156100ca57600080fd5b810190808035906020019092919080359060200190929190505050610347565b005b6101226004803603604081101561010257600080fd5b8101908080359060200190929190803590602001909291905050506103dc565b005b6101506004803603602081101561013a57600080fd5b81019080803590602001909291905050506103f8565b6040518082815260200191505060405180910390f35b6101926004803603602081101561017c57600080fd5b8101908080359060200190929190505050610415565b604051808381526020018273ffffffffffffffffffffffffffffffffffffffff1673ffffffffffffffffffffffffffffffffffffffff1681526020019250505060405180910390f35b3373ffffffffffffffffffffffffffffffffffffffff1660008085815260200190815260200160002060010160009054906101000a900473ffffffffffffffffffffffffffffffffffffffff1673ffffffffffffffffffffffffffffffffffffffff16146102b1576040517f08c379a000000000000000000000000000000000000000000000000000000000815260040180806020018281038252601f8152602001807f4f776e6572206973206e6f74206368616e67696e67206f776e6572736869700081525060200191505060405180910390fd5b60405180604001604052808381526020018273ffffffffffffffffffffffffffffffffffffffff168152506000808581526020019081526020016000206000820151816000015560208201518160010160006101000a81548173ffffffffffffffffffffffffffffffffffffffff021916908373ffffffffffffffffffffffffffffffffffffffff160217905550905050505050565b60405180604001604052808281526020013373ffffffffffffffffffffffffffffffffffffffff168152506000808481526020019081526020016000206000820151816000015560208201518160010160006101000a81548173ffffffffffffffffffffffffffffffffffffffff021916908373ffffffffffffffffffffffffffffffffffffffff1602179055509050505050565b8060016000848152602001908152602001600020819055505050565b600060016000838152602001908152602001600020549050919050565b6000806000808481526020019081526020016000206000015460008085815260200190815260200160002060010160009054906101000a900473ffffffffffffffffffffffffffffffffffffffff169150915091509156fea165627a7a72305820655fe392caf3495de274d8445ab08cab78a7095f413f826bc29741a12bfaa07d0029",
  "source": "pragma solidity >= 0.5.0 < 0.6.0;\n\ncontract OwnershipManagement {\n\n    struct Owner {\n        bytes32 owners_name;\n        address owners_address;\n    }\n    mapping(bytes32 => Owner) ownerInfo;\n    mapping(bytes32 => bytes32) txHashes;\n\n    function addOwnership(bytes32 house_tx_hash, bytes32 name) public {\n        ownerInfo[house_tx_hash] = Owner(name, msg.sender);\n    }\n\n    function changeOwnership(bytes32 house_tx_hash, bytes32 new_owners_name, address new_owners_addrss) public {\n        require(ownerInfo[house_tx_hash].owners_address == msg.sender, 'Owner is not changing ownership');\n        ownerInfo[house_tx_hash] = Owner(new_owners_name, new_owners_addrss);\n    }\n\n    function setOwnershipTxHash(bytes32 house_tx_hash, bytes32 ownership_tx_hash) public {\n        txHashes[house_tx_hash] = ownership_tx_hash;\n    }\n\n    function getOwnersInfo(bytes32 house_tx_hash) public view returns (bytes32, address) {\n        return (\n            ownerInfo[house_tx_hash].owners_name,\n            ownerInfo[house_tx_hash].owners_address\n        );\n    }\n\n    function getOwnershipTransactionInfo(bytes32 house_tx_hash) public view returns(bytes32) {\n        return txHashes[house_tx_hash];\n    }\n}",
  "sourcePath": "/media/naushad/New Volume/NaushadHossain/HomeTracker/Ethereum-based-Home-tracker/assetTrackerBackEnd/contracts/OwnershipManagement.sol",
  "compiler": {
    "name": "solc",
    "version": "0.5.8+commit.23d335f2.Emscripten.clang"
  },
  "schemaVersion": "3.0.15",
  "updatedAt": "2019-12-05T10:52:12.466Z",
  "devdoc": {
    "methods": {}
  },
  "userdoc": {
    "methods": {}
  }
}